:100000000C9463000C948B000C948B000C948B006C
:100010000C948B000C948B000C948B000C948B0034
:100020000C948B000C948B000C948B000C948B0024
:100030000C948B000C948B000C948B000C948B0014
:100040000C941A070C948B000C94E8060C94C206CE
:100050000C948B000C948B000C948B000C948B00F4
:100060000C948B000C948B000000000024002700EF
:100070002A0000000000250028002B0000000000DE
:1000800023002600290004040404040404040202DA
:100090000202020203030303030301020408102007
:1000A0004080010204081020010204081020000012
:1000B0000008000201000003040700000000000027
:1000C000000064073B0B11241FBECFEFD8E0DEBF5A
:1000D000CDBF23E0A6EFB1E001C01D92A935B20764
:1000E000E1F711E0A0E0B1E0EAE7FBE102C0059032
:1000F0000D92A63FB107D9F710E0C2E6D0E004C0E8
:100100002197FE010E94AF0BC136D107C9F70E94AB
:1001100033080C94B00D0C94000096E0899FD00138
:100120001124A954BD4F90967C936E935F9791E0F4
:1001300091969C939197E0912403F09125039091DF
:100140002303992339F0309751F0811108C0809131
:10015000D3020994309719F05C968C91FACF0895E8
:10016000CF92DF92EF92FF920F931F9396E0899FB9
:10017000F0011124E954FD4F11A2278D30A1213047
:10018000310551F178F02230310509F451C02330A6
:10019000310509F452C01F910F91FF90EF90DF904D
:1001A000CF9008956623B9F361E070E00E948D005E
:1001B0002FB7F89480910A0290910B02A0910C0243
:1001C000B0910D022FBF80930F0390931003A09363
:1001D0001103B0931203DFCF9FB7F894C0900A02C7
:1001E000D0900B02E0900C02F0900D029FBF0091A6
:1001F0000F03109110032091110330911203C01AC4
:10020000D10AE20AF30A009121031091220330E09F
:1002100020E00C151D052E053F0550F462E070E04E
:100220001F910F91FF90EF90DF90CF900C948D0075
:100230006111B1CF63E070E0F3CF70E060E0F0CF28
:10024000AF92BF92CF92DF92EF92FF920F931F93E4
:10025000CF93DF936C017B018B01040F151FEB0122
:100260005E01AE18BF08C017D10759F06991D601D9
:10027000ED91FC910190F081E02DC6010995892B4B
:1002800079F7C501DF91CF911F910F91FF90EF900A
:10029000DF90CF90BF90AF900895FC0144815581CD
:1002A0006081718186E293E00C942001FC01538D02
:1002B000448D252F30E0842F90E0821B930B541740
:1002C00010F0CF96089501970895FC01918D828DCD
:1002D000981761F0A28DAE0FBF2FB11D5D968C9166
:1002E000928D9F5F9F73928F90E008958FEF9FEFA5
:1002F0000895FC01918D828D981731F0828DE80F61
:10030000F11D858D90E008958FEF9FEF0895FC011A
:10031000918D228D892F90E0805C9F4F821B9109E7
:100320008F73992708958EE092E00E94870121E063
:10033000892B09F420E0822F089580E090E0892B3A
:1003400029F00E94930181110C9400000895FC0192
:10035000A48DA80FB92FB11DA35ABF4F2C91848D26
:1003600090E001968F739927848FA689B7892C9383
:10037000A089B1898C91837080648C93938D848DD6
:10038000981306C00288F389E02D80818F7D8083D9
:100390000895EF92FF920F931F93CF93DF93EC0199
:1003A00081E0888F9B8D8C8D98131AC0E889F9891C
:1003B000808185FF15C09FB7F894EE89FF8960831F
:1003C000E889F98980818370806480839FBF81E0A0
:1003D00090E0DF91CF911F910F91FF90EF900895E2
:1003E000F62E0B8D10E00F5F1F4F0F731127E02EBD
:1003F0008C8D8E110CC00FB607FCFACFE889F989F5
:10040000808185FFF5CFCE010E94A701F1CFEB8D52
:10041000EC0FFD2FF11DE35AFF4FF0829FB7F894C8
:100420000B8FEA89FB8980818062CFCFCF93DF93E6
:10043000EC01888D8823B9F0AA89BB89E889F989FC
:100440008C9185FD03C0808186FD0DC00FB607FC31
:10045000F7CF8C9185FFF2CF808185FFEDCFCE0164
:100460000E94A701E9CFDF91CF910895833081F0F9
:1004700028F4813099F08230A9F008958730A9F0EE
:100480008830C9F08430B1F4809180008F7D03C042
:10049000809180008F7780938000089584B58F7756
:1004A00084BD089584B58F7DFBCF8091B0008F7798
:1004B0008093B00008958091B0008F7DF9CFCF93E5
:1004C000DF93282F30E0F901E255FF4F8491F901C5
:1004D000E656FF4FD491F901EA57FF4FC491CC2360
:1004E000A1F081110E943602EC2FF0E0EE0FFF1F09
:1004F000E458FF4FA591B491EC91ED2381E090E099
:1005000009F480E0DF91CF91089580E090E0FACF88
:10051000862F0C945F021F93CF93DF93282F30E038
:10052000F901E255FF4F8491F901E656FF4FD4914E
:10053000F901EA57FF4FC491CC23A9F0162F81117E
:100540000E943602EC2FF0E0EE0FFF1FEE58FF4F37
:10055000A591B4918FB7F894EC91111108C0D09582
:10056000DE23DC938FBFDF91CF911F910895DE2BA7
:10057000F8CF862F642F0C948B02CF93DF9390E0FB
:10058000FC01E656FF4F24918A579F4FFC0184914E
:100590008823C9F090E0880F991FFC01E859FF4FAC
:1005A000A591B491FC01EE58FF4FC591D491611112
:1005B0000DC09FB7F8948C91209582238C938881ED
:1005C000282328839FBFDF91CF910895623051F493
:1005D0009FB7F8943C91822F809583238C93E88178
:1005E0002E2BEFCF8FB7F894EC912E2B2C938FBF3F
:1005F000EACF862F642F0C94BD026F927F928F9268
:100600009F92AF92BF92CF92DF92EF92FF920F93A1
:100610001F93CF93DF9381E0809323038FB7F894E8
:1006200040910A0250910B0260910C0270910D02F0
:100630008FBF8091130390911403A0911503B09183
:100640001603481B590B6A0B7B0B80911F0390917B
:100650002003B0E0A0E084179507A607B70708F0CD
:100660001DC1C0E080911D03C81760F4E09119031B
:10067000F0911A03EC0FF11D62E080810E94BD022F
:10068000CF5FF0CF712C812C912C540183948091F9
:100690001E03781608F05FC0072D10E0E0911B03E1
:1006A000F0911C03E00FF11F61E080810E94BD0208
:1006B000E0911B03F0911C03E00FF11F60E08081CB
:1006C0000E948B02D501C401072C04C0880F991F1A
:1006D000AA1FBB1F0A94D2F76C017C01E094F0942E
:1006E000612C80911D036816F8F4C62DD0E0E091CE
:1006F0001903F0911A03EC0FFD1F80810E945F0225
:100700002496CC0FDD1FC954DD4F892B41F488811D
:1007100099818C299D29998388836394E2CF88816C
:1007200099818E219F21F7CFE0911B03F0911C034B
:10073000E00FF11F61E080810E948B0280911B031A
:1007400090911C03080F191F60E0F80180810E943E
:10075000BD0273949CCFC7EBD2E0FE018FEF9FEFF9
:10076000278D30A1232B21F4148E968F858F11A213
:10077000369622E0E33FF20799F7F12C96E0D92E66
:1007800080911D03F81608F050C0E12C0F2D10E0E9
:10079000000F111F01541D4F20911E03E21608F097
:1007A00042C0F801608171810E2C02C07695679578
:1007B0000A94E2F7F29E900111242E0D311DE7EB11
:1007C000F2E080E0458D568D2417350709F46AC0A4
:1007D0008F5F36968A30B1F760FF23C0E7EBF2E017
:1007E00090E080E0448D411117C0E0911703F09133
:1007F0001803E20FF31F4081D89EF001D99EF00D3F
:100800001124E954FD4F448F368F258F10A2178E87
:1008100061E00E94B00005C0019636968A309105CD
:1008200009F7E394B9CFF394ABCF80E099A191118C
:10083000892F2696F2E0C33FDF07C1F79FB7F894F0
:1008400040910A0250910B0260910C0270910D02CE
:100850009FBF409313035093140360931503709349
:1008600016038823D9F08091D8028823B9F08091AB
:10087000D6029091D702019789F48091D302DF913B
:10088000CF911F910F91FF90EF90DF90CF90BF908D
:10089000AF909F908F907F906F9008951092230358
:1008A00080E0EDCF6170B5CF3FB7F8948091F7014C
:1008B0009091F801A091F901B091FA0126B5A89B99
:1008C00005C02F3F19F00196A11DB11D3FBFBA2FE2
:1008D000A92F982F8827BC01CD01620F711D811DA2
:1008E000911D42E0660F771F881F991F4A95D1F727
:1008F00008958F929F92AF92BF92CF92DF92EF9224
:10090000FF924B015C010E9454046B017C010E9428
:1009100054046C197D098E099F09683E7340810556
:100920009105A8F321E0821A9108A108B10888EE88
:10093000C80E83E0D81EE11CF11C81149104A104AF
:10094000B10429F7FF90EF90DF90CF90BF90AF9068
:100950009F908F900895089590E080E00895CF9340
:10096000DF93EC0160E08E810E948B0261E08E815A
:100970000E948B0260E08E810E948B028BE891E0E6
:100980000197F1F7DF91CF910895CF92DF92EF9227
:10099000FF920F931F93CF93DF936C017C0187E04D
:1009A000E80EF11CD0E0C0E0062F10E0B8010C2EDC
:1009B00002C0759567950A94E2F76170F70181911D
:1009C0007F010E948B022196C430D10579F7C601C0
:1009D000DF91CF911F910F91FF90EF90DF90CF901B
:1009E0000C94AF04CF92DF92EF92FF920F931F937C
:1009F000CF93DF93EC01F62E642F8C810E948B0243
:100A00008D818F3F19F060E00E948B020F2D10E066
:100A10008F8584FF25C06E0187E0C80ED11CF12CA4
:100A2000E12CB8010E2C02C0759567950A94E2F787
:100A30006170F60181916F010E948B02FFEFEF1A46
:100A4000FF0A88E0E816F10461F7CE01DF91CF914B
:100A50001F910F91FF90EF90DF90CF900C94AF0417
:100A6000B80184E0759567958A95E1F7CE010E94FB
:100A7000C5046F2DCE01DF91CF911F910F91FF9093
:100A8000EF90DF90CF900C94C50440E0682F86E291
:100A900093E00C94F20481E00E9445058BE39FE112
:100AA0000197F1F70895CF93DF93823029F4909165
:100AB00035039860909335038093390310923A037D
:100AC00080E480933B0380E180933C0380E5809346
:100AD0003D0361E080912A030E94BD0280912B03B7
:100AE0008F3F19F061E00E94BD0261E080912C030C
:100AF0000E94BD02C6E2D3E09E012652334080919F
:100B0000350384FD0BC084E090E021962817390757
:100B100044F461E08E810E94BD02EECF88E090E057
:100B2000F4CF8BE39DE00197F1F760E080912A0319
:100B30000E948B0260E080912C030E948B028091C6
:100B40002B038F3F19F060E00E948B0280913503E8
:100B500084FD34C063E086E293E00E94C504CBE4E8
:100B6000D6E4CE010197F1F763E086E293E00E94BC
:100B7000C5042197F1F763E086E293E00E94C50483
:100B800083E592E00197F1F762E086E293E00E944C
:100B9000C5048091350380620E94450584E08093FE
:100BA00036038CE00E9445050E944B0582E080934D
:100BB000370386E0DF91CF910C94450580620E9457
:100BC00045058BE496E40197F1F780913503806247
:100BD0000E94450583E592E00197F1F78091350386
:100BE00080620E944505D5CF90913903691710F0B6
:100BF0006FEF690FE62FF0E0EA5DFC4F9489890FF3
:100C000080680C94450541E00E94F20481E090E088
:100C10000895FC0101900020E9F73197AF01481BCE
:100C2000590BBC0186E293E00C942001CF93DF9333
:100C3000EC0188819981009711F00E94510C198272
:100C400018821D821C821B821A82DF91CF91089527
:100C5000FC0180819181009711F00C94510C089552
:100C60000F931F93CF93DF93EC01888199810097B5
:100C700059F02A813B812617370730F081E0DF9158
:100C8000CF911F910F9108958B016F5F7F4F0E944D
:100C9000DA0C009759F0998388831B830A832C818F
:100CA0003D81232B59F7FC011082E8CF80E0E7CF8C
:100CB000EF92FF920F931F93CF93DF93EC017B0191
:100CC0008A01BA010E94300681110BC0CE010E9438
:100CD0001606CE01DF91CF911F910F91FF90EF90FB
:100CE00008951D830C83B701888199810E94A90D05
:100CF000F0CFEF92FF920F931F93CF93DF93CDB777
:100D0000DEB762970FB6F894DEBF0FBECDBF8C0181
:100D1000CB01F80111821082138212821582148293
:100D20004AE09E012F5F3F4F7901B9010E94430BBA
:100D3000F70101900020E9F73197AF014E195F09E3
:100D4000B701C8010E94580662960FB6F894DEBF3C
:100D50000FBECDBFDF91CF911F910F91FF90EF900C
:100D60000895FC011182108213821282158214826E
:100D7000FB0101900020E9F73197AF01461B570BAB
:100D80000C9458061F920F920FB60F9211242F93B6
:100D90003F934F935F936F937F938F939F93AF9303
:100DA000BF93EF93FF938EE092E00E94A701FF9123
:100DB000EF91BF91AF919F918F917F916F915F91D3
:100DC0004F913F912F910F900FBE0F901F9018954C
:100DD0001F920F920FB60F9211242F938F939F9310
:100DE000EF93FF93E0911E02F0911F028081E0914A
:100DF0002402F091250282FD1BC090818091270280
:100E00008F5F8F7320912802821741F0E0912702B3
:100E1000F0E0E25FFD4F958F80932702FF91EF9105
:100E20009F918F912F910F900FBE0F901F9018954B
:100E30008081F4CF1F920F920FB60F9211242F933F
:100E40003F938F939F93AF93BF9380910A029091AA
:100E50000B02A0910C02B0910D023091F60123E03B
:100E6000230F2D3758F50196A11DB11D2093F601D2
:100E700080930A0290930B02A0930C02B0930D0290
:100E80008091F7019091F801A091F901B091FA01D8
:100E90000196A11DB11D8093F7019093F801A093D5
:100EA000F901B093FA01BF91AF919F918F913F915A
:100EB0002F910F900FBE0F901F90189526E8230FCB
:100EC0000296A11DB11DD2CF1092110210921002F4
:100ED00088EE93E0A0E0B0E08093120290931302BA
:100EE000A0931402B093150282E291E090930F0256
:100EF00080930E0285EC90E090931B0280931A027F
:100F000084EC90E090931D0280931C0280EC90E0B2
:100F100090931F0280931E0281EC90E09093210237
:100F20008093200282EC90E090932302809322022F
:100F300086EC90E090932502809324021092270281
:100F4000109228021092290210922A0286E491E05F
:100F500090933F0380933E031092540310924003FA
:100F600010922903109228038EE391E090932703B7
:100F70008093260389E080932A038FEF80932B03CD
:100F800088E080932C038AE080932D038BE080938C
:100F90002E038CE080932F038DE08093300310921A
:100FA00031031092320310923303109234031092E3
:100FB000350381E00E9453051092B9021092BD02E0
:100FC0001092BC021092BE0284E391E09093B802AA
:100FD0008093B702E3EDF2E010821482138215824F
:100FE000369683E0EF30F807B9F788E091E0909308
:100FF0001A038093190385E091E090931C0380937A
:101000001B0384E080931D0383E080931E038CE028
:1010100091E090931803809317038AE090E09093F7
:10102000200380931F0384EF91E090932203809329
:10103000210310922503109224031092130310929F
:1010400014031092150310921603109223036CEDF3
:1010500071E081EB92E00E94B1066CED71E08BEAE9
:1010600092E00C94B106CF93DF93CDB7DEB76E97C5
:101070000FB6F894DEBF0FBECDBF789484B5826002
:1010800084BD84B5816084BD85B5826085BD85B52C
:10109000816085BD80916E00816080936E001092AA
:1010A0008100809181008260809381008091810025
:1010B00081608093810080918000816080938000B6
:1010C0008091B10084608093B1008091B000816014
:1010D0008093B00080917A00846080937A00809140
:1010E0007A00826080937A0080917A008160809398
:1010F0007A0080917A00806880937A001092C10013
:10110000E0911E02F0911F0282E08083E0911A02BA
:10111000F0911B021082E0911C02F0911D028FECF5
:10112000808310922602E0912202F091230286E051
:101130008083E0912002F091210280818061808390
:10114000E0912002F0912102808188608083E0910B
:101150002002F0912102808180688083E09120024A
:10116000F091210280818F7D808382E00E9453056F
:1011700060E080E00E94F4058BE491E00E940906A3
:1011800061E080E00E94F40586E591E00E94090696
:1011900060ED77E080E090E00E9479040E944B05CA
:1011A00061E08EE00E94BD0261E08FE00E94BD021E
:1011B00061E080E10E94BD0261E081E10E94BD0228
:1011C00060E08EE00E948B0260E08FE00E948B0264
:1011D00060E080E10E948B0260E081E10E948B026E
:1011E00080E0C82E80E0D82EEE24E394F12C0E94FB
:1011F000FD02882309F424C200910802109109021B
:10120000F801ED5FFD4F808341E0682F86E293E0B7
:101210000E94F2040F5F1F4F10930902009308020F
:1012200060E0802F0E94F4050430110509F008C227
:1012300060E071E083E092E00E94A00D892B09F04C
:10124000FFC160E080E00E94F40584E691E00E9426
:1012500009066CED75E080E090E00E9479040E9440
:101260004B0560E080E00E94F40585E791E00E9474
:10127000090662E080E00E94F40586E891E00E94A1
:1012800009066CED75E080E090E00E9479040E9410
:101290004B050E94FD02182F80ED810F8A3008F067
:1012A00044C01A8219821C821B821E821D82609198
:1012B000B1027091B2026115710541F04091B50221
:1012C0005091B602CE0101960E9458061F831886DF
:1012D0000D811E810F5F1F4FB801CE0101960E9444
:1012E0003006882309F4B8C129813A818D819E8115
:1012F000BE01695F7F4F820F931F0E94A90D1E835D
:101300000D8369817A816115710509F4AAC14D8146
:101310005E8181EB92E00E945806CE0101960E9408
:10132000280681EB92E00E944D0160E080E00E947F
:10133000F40580E991E00E9409066CEB72E080E020
:1013400090E00E94790460E081E00E94F40582E967
:1013500091E00E9409066CEB72E080E090E00E9450
:10136000790460E082E00E94F40585EA91E00E9441
:1013700009066CEB72E080E090E00E94790460E086
:1013800083E00E94F40585EA91E00E9409066CEB77
:1013900072E080E090E00E94790460E084E00E94C6
:1013A000F40584E991E00E9409060E944B05F09241
:1013B0000202E0920102F0920002E092FF01F0923C
:1013C000FE01E092FD01F092FC01E092FB0161E080
:1013D00070E0CE0149960E9479066091FB01709100
:1013E000FC01CE0143960E9479066091FB01709149
:1013F000FC01CE010D960E9479066091FB0170916F
:10140000FC01CE0107960E9479068091010290911D
:1014100002021816190614F50E944B0560E080E0E0
:101420000E94F40586E991E00E94090661E080E0EF
:101430000E94F405CE0149960E944D0168EB7BE0C5
:1014400080E090E00E94790461E08EE00E948B02CF
:1014500060ED77E080E090E00E94790460E08EE04B
:101460000E948B028091FF019091000218161906CC
:1014700014F50E944B0560E080E00E94F40587EAC5
:1014800091E00E94090661E080E00E94F405CE012F
:1014900007960E944D0168EB7BE080E090E00E949F
:1014A000790461E08FE00E948B0260ED77E080E0DC
:1014B00090E00E94790460E08FE00E948B028091AE
:1014C000FD019091FE011816190614F50E944B05B6
:1014D00060E080E00E94F40589EB91E00E9409063B
:1014E00061E080E00E94F405CE010D960E944D015E
:1014F00060ED77E080E090E00E94790461E080E1B7
:101500000E948B0260ED77E080E090E00E94790419
:1015100060E080E10E948B028091FB019091FC01D0
:10152000181619060CF04EC00E944B0560E080E0D2
:101530000E94F4056BEC71E0CE0101960E94B106A9
:10154000AB88BC88A114B10409F490C00F89188D30
:1015500001151105B9F08D819E81080F191FB80181
:10156000CE0101960E943006882309F47FC02981AC
:101570003A818D819E81B501820F931F0E94A90D32
:101580001E830D83CE0101960E944D01CE0101966E
:101590000E94280661E080E00E94F405CE01439697
:1015A0000E944D0160ED77E080E090E00E947904B8
:1015B00061E081E10E948B0260ED77E080E090E0E5
:1015C0000E94790460E081E10E948B0260E08EE07D
:1015D0000E948B0260E08FE00E948B0260E080E15D
:1015E0000E948B0260E081E10E948B020E944B0509
:1015F00060E080E00E94F4058DED91E00E94090614
:1016000060ED77E080E090E00E9479040E944B0555
:1016100060E080E00E94F4058EEE91E00E940906F1
:10162000CE0107960E942806CE010D960E9428063C
:10163000CE0143960E942806CE0149960E942806B4
:10164000C114D10409F4D3CD0E949301882309F475
:10165000CECD0E940000CBCDCE0101960E94160691
:1016600050CE81EB92E00E94160657CECE01019635
:101670000E94160687CF8BEA92E00E94280681EB33
:1016800092E00C942806BB274A3031F4992322F4C7
:10169000BDE2909581959F4F0C944F0BBB27FB01AA
:1016A0005527AA27880F991FAA1FA41710F0A41B5B
:1016B00083955051B9F7A05DAA3308F0A95DA193B5
:1016C000009779F7B111B1931192CB010C94680B8B
:1016D000DC01FC01672F71917723E1F7329704C099
:1016E0007C916D9370836291AE17BF07C8F3089524
:1016F0002F923F924F925F926F927F928F929F9222
:10170000AF92BF92CF92DF92EF92FF920F931F930F
:10171000CF93DF93CDB7DEB7CA1BDB0B0FB6F894C0
:10172000DEBF0FBECDBF09942A88398848885F8400
:101730006E847D848C849B84AA84B984C884DF8071
:10174000EE80FD800C811B81AA81B981CE0FD11D55
:101750000FB6F894DEBF0FBECDBFED010895EE0FBA
:10176000FF1F0590F491E02D09940F931F93CF93E1
:10177000DF938230910510F482E090E0E09157030E
:10178000F091580330E020E0B0E0A0E0309799F409
:101790002115310509F44AC0281B390B24303105C5
:1017A000D8F58A819B816115710589F1FB019383CD
:1017B0008283FE0111C0408151810281138148174B
:1017C0005907E0F04817590799F4109761F01296FD
:1017D0000C93129713961C933296CF01DF91CF9101
:1017E0001F910F9108950093570310935803F4CF5E
:1017F0002115310551F04217530738F0A901DB01DB
:101800009A01BD01DF01F801C1CFEF01F9CF90933B
:10181000580380935703CDCFFE01E20FF31F81934E
:1018200091932250310939832883D7CF20915503D2
:1018300030915603232B41F420911A0130911B0162
:1018400030935603209355032091180130911901CC
:101850002115310541F42DB73EB740911C0150913F
:101860001D01241B350BE0915503F0915603E2173F
:10187000F307A0F42E1B3F0B2817390778F0AC01B3
:101880004E5F5F4F2417350748F04E0F5F1F509390
:10189000560340935503819391939FCFF0E0E0E08E
:1018A0009CCFCF93DF930097E9F0FC01329713822E
:1018B0001282A0915703B0915803ED0130E020E06F
:1018C0001097A1F420813181820F931F209155033D
:1018D000309156032817390709F061C0F093560379
:1018E000E0935503DF91CF910895EA01CE17DF070A
:1018F000E8F54A815B819E0141155105B1F7E90187
:10190000FB83EA8349915991C40FD51FEC17FD075A
:1019100061F4808191810296840F951FE90199837A
:101920008883828193819B838A83F0E0E0E0129632
:101930008D919C9113970097B9F52D913C9111973A
:10194000CD010296820F931F2091550330915603CB
:101950002817390739F6309751F51092580310922D
:101960005703B0935603A0935503BCCFD383C283D0
:1019700040815181840F951FC817D90761F44E5FCC
:101980005F4F88819981480F591F518340838A8115
:101990009B81938382832115310509F0B0CFF093A9
:1019A0005803E09357039ECFFD01DC01C0CF1382A3
:1019B0001282D7CFB0E0A0E0E0EEFCE00C947A0B0E
:1019C0008C01009751F4CB010E94B50B8C01C8012A
:1019D000CDB7DEB7E0E10C94960BFC01E60FF71FE4
:1019E0009C0122503109E217F30708F49DC0D90188
:1019F000CD91DC911197C617D70798F0C530D10566
:101A000030F3CE0104978617970708F3C61BD70B50
:101A10002297C193D1936D937C93CF010E94510C77
:101A2000D6CF5B01AC1ABD0A4C018C0E9D1EA09155
:101A30005703B0915803512C412CF12CE12C1097F5
:101A400031F580915503909156038815990509F059
:101A50005CC04616570608F058C080911801909156
:101A60001901009741F48DB79EB740911C01509128
:101A70001D01841B950BE817F90708F055C0F0937A
:101A80005603E0935503F90171836083A0CF8D91D4
:101A90009C91119712966C90129713967C901397C5
:101AA000A815B90559F56C0142E0C40ED11CCA1441
:101AB000DB0420F1AC014A195B09DA011296159793
:101AC00080F06282738251834083D9016D937C934D
:101AD000E114F10471F0D7011396FC93EE93129781
:101AE00076CF22968C0F9D1FF90191838083F3019D
:101AF000EFCFF0935803E093570369CF4816590688
:101B000008F42C017D01D3019ACFCB010E94B50BC3
:101B10007C01009749F0AE01B8010E94970DC80101
:101B20000E94510C870153CF10E000E050CFFB0121
:101B3000DC0102C001900D9241505040D8F7089549
:101B4000FB01DC018D91019080190110D9F3990BF3
:101B50000895FB01DC0101900D920020E1F708954A
:101B600010E0C2E6D0E004C0FE010E94AF0B219657
:0A1B7000C336D107C9F7F894FFCF80
:101B7A0031323334000706050302010031323334AF
:101B8A0035363738392A30230000590380000000DF
:101B9A000000C90120015601160287016501790179
:101BAA0000000000F902B9028802000000000306E2
:101BBA002001AC04AB0431323334004269656E76DD
:101BCA00656E69646F00446967697465207375207E
:101BDA0050494E0020203C50494E20434F52524516
:101BEA0043544F3E00496E67726573652063616EA8
:101BFA00746964616400612072657469726172005B
:101C0A0031003800230042696C6C65746573206486
:101C1A006520313030300042696C6C657465732020
:101C2A006465203530303A200042696C6C65746511
:101C3A0073206465203230303A200042696C6C654A
:101C4A00746573206465203130303A20005245545F
:101C5A004952452053552044494E45524F00477238
:061C6A0061636961730073
:00000001FF
